:020000020000FC
:1000000000C00FEF07BB0FE701BB0FEF04BB0FEF03
:100010000ABB00E008BB00E002BB00E00BBB00E055
:1000200005BB02E00EBF0FE50DBF4BD017E32ED08E
:100030004AD020D022D02223A9F033D049E129D0C0
:10004000332361F030D044E124D0332341F02DD06C
:100050004FE01FD0332321F02AD008C02CD02DD060
:100060002ED004C026D027D028D029D0D8E8C0E789
:1000700015D0DBCF879BFECF08952227239522231F
:1000800021F01FEF03D08799F9CF08951A95F1F762
:10009000089531E0241708F030E008952197F1F732
:1000A0000895C09A0895C19A0895C29A0895C39A6E
:1000B0000895C0980895C1980895C2980895C39866
:0A00C0000895969A08959698089501
:00000001FF
